:100000000C9419010C9441010C9441010C94410190
:100010000C9441010C9441010C9441010C94410158
:100020000C9441010C9441010C9441010C94410148
:100030000C9441010C9441010C9441010C94410138
:100040000C9419080C9441010C94E7060C94C10619
:100050000C9441010C9441010C9441010C94410118
:100060000C94A40A0C9441015E1277139F13CA13D7
:100070000C145114D61428153D1576164E414E49D0
:100080004E495459494E46CDCCCC3D0AD7233C1756
:10009000B7D13877CC2B329595E6241FB14F0A00A3
:1000A0000020410000C84200401C4620BCBE4CCA93
:1000B0001B0E5AAEC59D7400407A10F35A00A07210
:1000C0004E18090010A5D4E80000E8764817000093
:1000D000E40B54020000CA9A3B000000E1F5050061
:1000E0000080969800000040420F000000A08601AA
:1000F000000000102700000000E80300000000647A
:1001000000000000000A00000000000100000000E4
:10011000002C76D888DC674F0823DFC1DFAE59E1B9
:10012000B1B796E5E3E453C63AE651997696E8E628
:10013000C28426EB898C9B62ED407C6FFCEFBC9CFB
:100140009F40F2BAA56FA5F490055A2AF75C936B0D
:100150006CF9676DC11BFCE0E40D47FEF520E6B5C8
:1001600000D0ED902E0300943577050080841E08A2
:100170000000204E0A000000C80C333333330F98C0
:100180006E12831141EF8D2114893BE65516CFFE87
:10019000E6DB18D1844B381BF77C1D901DA4BBE413
:1001A00024203284725E228100C9F124ECA1E53D55
:1001B00027302E302E302E30003132372E302E3078
:1001C0002E310000000000240027002A000000005B
:1001D00000250028002B0000000000230026002935
:1001E00000040404040404040402020202020203E0
:1001F00003030303030102040810204080010204EA
:10020000081020010204081020000000080002016C
:100210000000030407000000000000000072756E7B
:100220002D6272696467650A000A000A0000E5161B
:10023000BD0F11241FBECFEFD8E0DEBFCDBF12E04F
:10024000A0E0B1E0EEE5F2E402C005900D92A03628
:10025000B107D9F724E0A0E6B2E001C01D92AF37A4
:10026000B207E1F711E0C8E1D1E004C02197FE0137
:100270000E94101FC731D107C9F70E94C10F0C940B
:1002800022210C9400000895CF92DF92EF92FF920A
:100290000F931F93CF93DF936C017A018B01C0E022
:1002A000D0E0CE15DF0589F0D8016D918D01D60122
:1002B000ED91FC910190F081E02DC6010995892B0B
:1002C00011F47E0102C02196ECCFC701DF91CF91DE
:1002D0001F910F91FF90EF90DF90CF900895FC0158
:1002E000538D448D252F30E0842F90E0821B930B9B
:1002F000541710F0CF96089501970895FC01918D41
:10030000828D981761F0828DDF01A80FB11D5D9677
:100310008C91928D9F5F9F73928F90E008958FEFE5
:100320009FEF0895FC01918D828D981731F0828D99
:10033000E80FF11D858D90E008958FEF9FEF0895F0
:10034000FC01918D228D892F90E0805C9F4F821B54
:1003500091098F739927089585E493E00E94A00185
:1003600021E0892B09F420E0822F0895FC01848D7F
:10037000DF01A80FB11DA35ABF4F2C91848D90E0CF
:1003800001968F739927848FA689B7892C93A089AA
:10039000B1898C9180648C93938D848D981306C061
:1003A0000288F389E02D80818F7D80830895EF920C
:1003B000FF920F931F93CF93DF93EC0181E0888F1F
:1003C0009B8D8C8D981305C0E889F989808185FD06
:1003D00024C0F62E0B8D10E00F5F1F4F0F731127F7
:1003E000E02E8C8DE8120CC00FB607FCFACFE8891E
:1003F000F989808185FFF5CFCE010E94B601F1CF4A
:100400008B8DFE01E80FF11DE35AFF4FF0820B8F39
:10041000EA89FB898081806207C0EE89FF89608359
:10042000E889F98980818064808381E090E0DF91B0
:10043000CF911F910F91FF90EF900895CF93DF938D
:10044000EC01888D8823C9F0EA89FB89808185FDCC
:1004500005C0A889B9898C9186FD0FC00FB607FC2D
:10046000F5CF808185FFF2CFA889B9898C9185FF6E
:10047000EDCFCE010E94B601E7CFDF91CF91089575
:1004800080E090E0892B29F00E94AC0181110C944E
:1004900000000895833081F028F4813099F0823093
:1004A000A1F008958730A9F08830B9F08430D1F4F4
:1004B000809180008F7D03C0809180008F77809332
:1004C0008000089584B58F7702C084B58F7D84BD88
:1004D00008958091B0008F7703C08091B0008F7D28
:1004E0008093B00008950895FB012785FC012787BC
:1004F000FB012685FC0126870895FC018785089568
:1005000085ED8093BC008091BC0084FDFCCF1092EF
:100510002103089540918202262F30E0240F311DDF
:1005200021323105DCF4209121032430C9F4FC018F
:1005300080E090E0861758F4309182022191DC012E
:10054000A05ABD4FA30FB11D2C930196F3CF8091FC
:100550008202680F6093820280E0089581E008952E
:1005600082E008950895E091DA028091D902E817B7
:1005700030F4F0E0E552FD4F808190E008958FEF78
:100580009FEF08959091DA028091D902981750F464
:10059000E92FF0E0E552FD4F208130E09F5F90931E
:1005A000DA0202C02FEF3FEFC90108958091D9020E
:1005B00090E02091DA02821B91090895CF92DF9298
:1005C000EF92FF920F931F93CF93DF937C01262F1F
:1005D000972F8A0180912203882391F0C62FD72F6D
:1005E0006E01C40ED51ECC15DD0571F06991D701E1
:1005F000ED91FC910190F081E02DC7010995F3CFB9
:10060000642F822F0E948A02C801DF91CF911F912F
:100610000F91FF90EF90DF90CF900895CF93DF93ED
:100620001F92CDB7DEB76983209122032223D1F038
:1006300020914403203240F021E030E0FC0133837C
:10064000228380E090E015C080912303E82FF0E042
:10065000EC5DFC4F998190838F5F8093230380939F
:10066000440305C061E0CE0101960E948A0281E048
:1006700090E00F90DF91CF910895089580E090E091
:1006800008950E940D216115710579F0FB0101901B
:100690000020E9F73197AF01461B570BDC01ED91C4
:1006A000FC910280F381E02D099480E090E00895B0
:1006B0004F925F926F927F92EF92FF920F931F93F0
:1006C000CF93DF93CDB7DEB7A1970FB6F894DEBF17
:1006D0000FBECDBF7C01FA01CB0119A2223008F474
:1006E0002AE08E010F5D1F4F422E512C612C712C80
:1006F000BF01A30192010E94CC1DF901CA01015062
:1007000011096A3014F4605D01C0695CD8016C9312
:10071000232B242B252B61F7B801C7010E9443032B
:10072000A1960FB6F894DEBF0FBECDBFDF91CF917B
:100730001F910F91FF90EF907F906F905F904F907F
:1007400008950F931F93CF93DF93EC0188819981D4
:10075000009729F02A813B812617370788F48B01FF
:100760006F5F7F4F0E944320009761F099838883D9
:100770001B830A832C813D81232B11F4FC01108201
:1007800081E001C080E0DF91CF911F910F9108952A
:100790008F929F92AF92BF92CF92DF92EF92FF9291
:1007A0000F931F93CF93DF937C01EB016C0182E0E9
:1007B000C80ED11C4701E5E08E0E911C00E010E050
:1007C000F60141916F0150E060E070E02AE0CE0157
:1007D0000E9458035C01E881F9810190F081E02DCD
:1007E0006EE2CE0109958A0D9B1D080F191FC814D2
:1007F000D90431F7F701458150E060E070E02AE06C
:10080000CE010E945803800F911FDF91CF911F915D
:100810000F91FF90EF90DF90CF90BF90AF909F909F
:100820008F900895AF92BF92CF92DF92EF92FF9296
:100830000F931F93CF93DF9300D0CDB7DEB7FC01AA
:1008400087858823B1F05A019B018CE689838685D0
:100850008A83C12CD12CE12CF12C8A0142E050E09A
:10086000BE016F5F7F4F848595850E942A0CC5016C
:1008700002C080E090E00F900F90DF91CF911F9128
:100880000F91FF90EF90DF90CF90BF90AF900895C1
:10089000FC0180819181009711F00C94BD1760E0FC
:1008A00070E0CB010895EF92FF920F931F93CF93C7
:1008B000DF93FC01248135816115710511F480E01D
:1008C00019C041155105A9F07B01EC018A01020F05
:1008D000131FB8010E94A103882389F3288139815D
:1008E0008C819D81B701820F931F0E941B211D8364
:1008F0000C8381E0DF91CF911F910F91FF90EF90DA
:100900000895EF92FF920F931F93CF93DF9300D040
:1009100000D0CDB7DEB77C01862F4AE08E010F5F95
:100920001F4FB80190E00E94F417F80101900020D9
:10093000E9F73197AF01401B510BB801C7010E9485
:1009400053040F900F900F900F90DF91CF911F9154
:100950000F91FF90EF900895CF93DF9300D0CDB724
:10096000DEB769831A8241E050E0BE016F5F7F4FBE
:100970000E9453040F900F90DF91CF910895CF9371
:10098000DF93EC0188819981009711F00E94AB1FE1
:10099000198218821D821C821B821A82DF91CF91DC
:1009A0000895EF92FF920F931F93CF93DF93CDB7EC
:1009B000DEB764970FB6F894DEBF0FBECDBF7C01E3
:1009C000CB01BA018E010F5F1F4F22E044E00E946D
:1009D0009917FC0101900020E9F73197AF01481BFE
:1009E000590BBC01C7010E945304811103C0C70108
:1009F0000E94BF04C70164960FB6F894DEBF0FBE15
:100A0000CDBFDF91CF911F910F91FF90EF9008958F
:100A1000CF93DF93EC016115710561F0FB0101904B
:100A20000020E9F73197AF01461B570B0E94530492
:100A3000811103C0CE010E94BF04CE01DF91CF918E
:100A40000895EF92FF920F931F93CF93DF93EC01E2
:100A50008B016115710551F0CB010E94EB177C01F0
:100A6000BC01CE010E94A103811104C0CE010E94ED
:100A7000BF0407C0FD82EC82B801888199810E9481
:100A8000E417CE01DF91CF911F910F91FF90EF906E
:100A90000895EF92FF920F931F93CF93DF93EC0192
:100AA0007B018A01BA010E94A103811104C0CE0119
:100AB0000E94BF0407C01D830C83B7018881998100
:100AC0000E941B21CE01DF91CF911F910F91FF90CA
:100AD000EF900895CF93DF93EC01FB018617970702
:100AE00061F0608171816115710529F04481558142
:100AF0000E94490502C00E94BF04CE01DF91CF9140
:100B00000895FC01808191810C94AB1FAF92BF923C
:100B1000CF92DF92EF92FF920F931F93CF93DF93C9
:100B2000CDB7DEB72A970FB6F894DEBF0FBECDBFA4
:100B30005C018EE48F83F501868197819887898790
:100B40001A8219821C821B821E821D8269EB71E04F
:100B5000CE0101960E942105F5018185811106C013
:100B600061EB71E0CE0101960E9421050D811E818D
:100B700029813A81CC24C394D12CCE010A967C01E0
:100B800043E050E0BE01695F7F4FF50184819581AC
:100B90000E942A0C81E09A85913009F080E0F501ED
:100BA0008087CE0101960E9481052A960FB6F8949F
:100BB000DEBF0FBECDBFDF91CF911F910F91FF9090
:100BC000EF90DF90CF90BF90AF900895FC0111821D
:100BD000108213821282158214820C946A05FC0121
:100BE000118210821382128215821482611571059E
:100BF00051F0FB0101900020E9F73197AF01461B4E
:100C0000570B0C9449050895EF92FF920F931F9391
:100C1000CF93DF93CDB7DEB728970FB6F894DEBF3A
:100C20000FBECDBF7C018B0161EB71E0CE0101965F
:100C30004F8358870E94EF0562E170E0CE01019674
:100C40000E94A103D80112966C91CE0101960E94D8
:100C500081046EE2CE0101960E94AC04F80163812A
:100C6000CE0101960E9481046EE2CE0101960E949F
:100C7000AC04D80114966C91CE0101960E948104B7
:100C80006EE2CE0101960E94AC04F8016581CE01AE
:100C900001960E948104D701ED91FC9169817A81CE
:100CA0000088F189E02D4F815885C70109958C0195
:100CB000CE0101960E948105C80128960FB6F894CE
:100CC000DEBF0FBECDBFDF91CF911F910F91FF907F
:100CD000EF9008950F931F93CF93DF93EC010E9441
:100CE00043038C016FEA71E0CE010E944303800F41
:100CF000911FDF91CF911F910F9108950F931F9333
:100D0000CF93DF93EC01E881F981DB0114964D91DB
:100D10005C9115976D917C910280F381E02D09958E
:100D20008C016FEA71E0CE010E944303800F911F96
:100D3000DF91CF911F910F910895EF92FF920F9342
:100D40001F93CF93DF938C017B01C0E0D0E0F701CC
:100D5000EC0FFD1F6491662361F0D801ED91FC91C9
:100D60000190F081E02DC8010995892B11F02196A1
:100D7000EECFCE01DF91CF911F910F91FF90EF90B9
:100D800008951F920F920FB60F9211242F933F9345
:100D90004F935F936F937F938F939F93AF93BF9383
:100DA000EF93FF9385E493E00E94B601FF91EF91EA
:100DB000BF91AF919F918F917F916F915F914F9173
:100DC0003F912F910F900FBE0F901F9018951F927B
:100DD0000F920FB60F9211242F938F939F93EF933F
:100DE000FF93E0915503F09156038081E0915B03FE
:100DF000F0915C0382FD12C0908180915E038F5F51
:100E00008F7320915F03821751F0E0915E03F0E051
:100E1000EB5BFC4F958F80935E0301C08081FF9157
:100E2000EF919F918F912F910F900FBE0F901F9078
:100E30001895CF93DF93282F30E0F901E75FFD4F3E
:100E40008491F901EB50FE4FD491F901EF51FE4F1F
:100E5000C491CC2391F081110E944A02EC2FF0E062
:100E6000EE0FFF1FE952FE4FA591B491EC91ED23D7
:100E700081E090E021F480E002C080E090E0DF912A
:100E8000CF9108951F93CF93DF93282F30E0F9017E
:100E9000E75FFD4F8491F901EB50FE4FD491F901CA
:100EA000EF51FE4FC491CC23C9F0162F81110E943F
:100EB0004A02EC2FF0E0EE0FFF1FE353FE4FA59127
:100EC000B4918FB7F894111105C09C91ED2FE09566
:100ED000E92302C0EC91ED2BEC938FBFDF91CF9112
:100EE0001F910895CF93DF9390E0FC01EB50FE4FEC
:100EF0002491FC01EF51FE4F8491882361F190E031
:100F0000880F991FFC01ED53FE4FC591D491FC0150
:100F1000E353FE4FA591B491611109C09FB7F894B6
:100F20008881209582238883EC912E230BC0623028
:100F300061F49FB7F8943881822F8095832388834A
:100F4000EC912E2B2C939FBF06C08FB7F894E881AD
:100F50002E2B28838FBFDF91CF9108953FB7F89450
:100F60008091AC029091AD02A091AE02B091AF021F
:100F700026B5A89B05C02F3F19F00196A11DB11DF4
:100F80003FBFBA2FA92F982F8827820F911DA11D2F
:100F9000B11DBC01CD0142E0660F771F881F991F6C
:100FA0004A95D1F708958F929F92AF92BF92CF92B8
:100FB000DF92EF92FF926B017C010E94AE074B0122
:100FC0005C01C114D104E104F104F1F00E94AE0708
:100FD000DC01CB0188199909AA09BB09883E934015
:100FE000A105B10570F321E0C21AD108E108F108AA
:100FF00088EE880E83E0981EA11CB11CC114D10498
:10100000E104F10419F7DDCFFF90EF90DF90CF906E
:10101000BF90AF909F908F9008952FB7F8946091F4
:10102000A8027091A9028091AA029091AB022FBFF1
:1010300008951F920F920FB60F9211242F933F9392
:101040008F939F93AF93BF938091A8029091A90231
:10105000A091AA02B091AB023091A70223E0230F26
:101060002D3720F40196A11DB11D05C026E8230FE0
:101070000296A11DB11D2093A7028093A802909310
:10108000A902A093AA02B093AB028091AC02909106
:10109000AD02A091AE02B091AF020196A11DB11DAB
:1010A0008093AC029093AD02A093AE02B093AF02D6
:1010B000BF91AF919F918F913F912F910F900FBE54
:1010C0000F901F901895CF93DF93EC018D819E8137
:1010D000DC01ED91FC910084F185E02D0995181655
:1010E000190654F48D819E81DC01ED91FC910284FE
:1010F000F385E02D0995EACFDF91CF9108958F9286
:101100009F92AF92BF92CF92DF92EF92FF92CF93D6
:10111000DF93EC016B010E940D084B015C01E12C97
:10112000F12C8D819E81DC01ED91FC910284F3858F
:10113000E02D099597FF0FC00E940D08DC01CB013F
:1011400088199909AA09BB098C159D05AE05BF052B
:1011500040F38FEF9FEFDF91CF91FF90EF90DF9003
:10116000CF90BF90AF909F908F900895FC01238106
:1011700034812627022E2295207F2025032E322F10
:1011800022952F700226269532272327220F220F21
:10119000220F2025348323830895CF92DF92EF928C
:1011A000FF920F931F936801790100E010E020E0A7
:1011B00030E00E942A0C1F910F91FF90EF90DF907A
:1011C000CF900895AF92BF92CF92DF92EF92FF92AD
:1011D0000F931F93CF93DF93CDB7DEB727970FB64B
:1011E000F894DEBF0FBECDBF5C019B0183E4898311
:1011F0005A834B83FB0101900020E9F731978F015F
:10120000061B170BCC24C394D12CCE0107967C016E
:1012100043E050E0BE016F5F7F4FD5011C968D917A
:101220009C911D970E942A0C892BC1F18F81F50199
:10123000868793E69C838D8301E010E09E012A5F00
:101240003F4F42E050E0BE016C5F7F4FD5011C96DE
:101250008D919C911D970E94CD088E81882339F035
:1012600061E070E080E090E00E94D307E5CF81E08C
:10127000F50187870190F081E02D0688F789E02D40
:10128000C501099581110DC0D501ED91FC9104882E
:10129000F589E02DC5010995F501168680E090E0FD
:1012A00002C081E090E027960FB6F894DEBF0FBE33
:1012B000CDBFDF91CF911F910F91FF90EF90DF9005
:1012C000CF90BF90AF900895EF92FF920F931F932E
:1012D000CF93DF9300D01F92CDB7DEB7DC011F960E
:1012E0002C911F97222301F17C01ED91FC91008448
:1012F000F185E02D0995892BC9F48CE48983F701E8
:1013000086858A8301E010E09E012D5F3F4F42E019
:1013100050E0BE016F5F7F4F848595850E94CD08A8
:1013200081E09B81913019F080E001C081E00F9055
:101330000F900F90DF91CF911F910F91FF90EF9041
:101340000895EF92FF920F931F93CF93DF9300D0F6
:101350001F92CDB7DEB7FC012089211118C07C0196
:10136000118A8BE4898380E48B8386858A839F013D
:101370002E5E3F4F00E410E043E050E0BE016F5F9F
:101380007F4F848595850E94CD08F701808B0F9053
:101390000F900F90DF91CF911F910F91FF90EF90E1
:1013A0000895CF93DF93EC010E94A10988898823D7
:1013B00031F08989C80FD11D8A8990E002C08FEF72
:1013C0009FEFDF91CF910895CF92DF92EF92FF923E
:1013D0000F931F93CF93DF93EC016A017B0100E031
:1013E00010E08889811106C0CE010E94A109888978
:1013F000882399F00F5F1F4F898991E0980F998B8F
:10140000FE01E80FF11D8289F70181937F01888930
:101410008150888B0C151D0520F3C801DF91CF91F9
:101420001F910F91FF90EF90DF90CF900895CF9391
:10143000DF93EC010E94A1098889882359F081502B
:10144000888B898991E0980F998BC80FD11D8A8963
:1014500090E002C08FEF9FEFDF91CF910895CF937F
:10146000DF93EC010E94A109888990E0DF91CF9180
:1014700008950F931F9300E010E020E030E00E94F9
:10148000CD081F910F910895CF93DF9300D0CDB772
:10149000DEB722E629836A8342E050E0BE016F5F37
:1014A0007F4FFC01848195810E94390A81E090E0A0
:1014B0000F900F90DF91CF910895CF93DF9300D0DD
:1014C0001F92CDB7DEB7FC012785222389F08CE679
:1014D000898386858A836B8343E050E0BE016F5F1A
:1014E0007F4F848595850E94390A81E090E002C093
:1014F00080E090E00F900F900F90DF91CF910895D2
:101500000F931F93CF93DF9300D0CDB7DEB78C013D
:10151000FC018785882369F08AE6898386858A832A
:1015200042E050E0BE016F5F7F4F848595850E9449
:10153000390AF8011786108A118A0F900F90DF91EF
:10154000CF911F910F9108951F920F920FB60F9296
:1015500011242F933F934F935F936F937F938F93B8
:101560009F93AF93BF93EF93FF938091B900887FD0
:10157000803609F49CC068F5883209F45BC090F4A9
:10158000803109F454C038F4882309F4F6C0883057
:1015900009F44DC0F6C0883109F44CC0803209F41A
:1015A0005DC0EFC0803409F468C048F4803309F4AA
:1015B00055C0883309F0E5C080931F03D8C080353B
:1015C00009F44FC0883509F45DC0883409F0D9C0EA
:1015D000D6C0883909F4C7C0A8F4883709F467C0B1
:1015E00038F4883609F463C0803709F460C0C9C094
:1015F000883809F4B8C0803909F45FC0803809F030
:10160000C0C05BC0803B09F486C038F4803A09F45E
:1016100066C0883A09F47FC0B4C0803C09F4A7C012
:10162000883C09F4A4C0883B09F48AC0AAC0809110
:10163000FC0210C090911E0380911D03981770F555
:10164000E0911E0381E08E0F80931E03F0E0E350D3
:10165000FD4F80818093BB0085EC86C080931F0383
:101660008EC0E0911E0381E08E0F80931E03809157
:10167000BB00F0E0E350FD4F808390911E0380910A
:101680001D036EC0E0911E0381E08E0F80931E0348
:101690008091BB00F0E0E350FD4F808380912003F8
:1016A00081116DC081E08093FB0284EA61C083E018
:1016B000809321031092A602CFCF8091A6028032A0
:1016C00008F051C0E091A60281E08E0F8093A6023F
:1016D0008091BB00F0E0EA57FD4F8083BDCF85ECE1
:1016E0008093BC00109221038091A602803230F4D6
:1016F000E091A602F0E0EA57FD4F10826091A60249
:1017000070E0E0918402F091850286E892E009950C
:101710001092A60236C084E08093210310928302C7
:1017200010928202E0918002F091810209958091ED
:101730008202811105C081E08093820210926002D2
:10174000E091830281E08E0F80938302F0E0E05A03
:10175000FD4F80818093BB00909183028091820233
:10176000981708F479CF85E88093BC000AC085EC0F
:101770008093BC001092210304C010921F030E94AA
:101780008002FF91EF91BF91AF919F918F917F91D7
:101790006F915F914F913F912F910F900FBE0F90DE
:1017A0001F9018951092210381E0809320031092DE
:1017B000FB0261E082E10E94420761E083E10E9456
:1017C0004207E9EBF0E080818E7F808380818D7F0E
:1017D000808388E48093B80085E48093BC000895FA
:1017E0000F931F930E940D086093F6037093F70305
:1017F0008093F8039093F903E091EE03F091EF03E7
:101800000284F385E02D8EEE93E0099597FF1FC0CB
:101810000E940D080091F6031091F7032091F80340
:101820003091F903DC01CB01801B910BA20BB30BB0
:101830000091F2031091F3032091F4033091F5032A
:1018400080179107A207B307B8F28FEF9FEF1F91A0
:101850000F9108952F923F924F925F926F927F92D5
:101860008F929F92AF92BF92CF92DF92EF92FF92B0
:101870000F931F93CF93DF93CDB7DEB72B970FB6A0
:10188000F894DEBF0FBECDBF9B878A875B0119012D
:10189000FD82EC823A01600E711E872C7B82912CB6
:1018A00044244A94542C9B01240F351F3F832E83DC
:1018B0009101200F311F39872887EA85FB858085B4
:1018C000981608F036C1AA85BB8514965C924E9294
:1018D000139715968D919C911697DC01ED91FC91D3
:1018E0000190F081E02D6FEF09956FEF8A859B8560
:1018F0000E94B608EA85FB8585819681DC01ED9121
:10190000FC910190F081E02DAA85BB856C91099531
:10191000EA85FB856081CF010E94B608AA85BB8558
:1019200015968D919C911697DC01ED91FC9101909B
:10193000F081E02D682D09956B818A859B850E9439
:10194000B608EA85FB8585819681DC01ED91FC91E5
:101950000190F081E02D662D0995662D8A859B8585
:101960000E94B60875012E813F81E216F306B1F0A0
:10197000EA85FB85858196818701DC01ED91FC91EB
:101980000190F081E02DD7016D917D010995F8015D
:1019900060818A859B850E94B608E5CF7101AA8582
:1019A000BB8515968D919C91169728853985E216F1
:1019B000F30691F08701DC01ED91FC910190F0813B
:1019C000E02DD7016D917D010995F80160818A852F
:1019D0009B850E94B608E3CFDC01ED91FC91AA85BE
:1019E000BB8514966C910190F081E02D0995EA85F4
:1019F000FB8585819681DC01ED91FC910190F08160
:101A0000E02DAA85BB8513966C91099564E670E07C
:101A10008A859B850E947F088F3F910509F07DC0D4
:101A2000EA85FB85548243826FEFCF010E94B6089E
:101A300065E070E08A859B850E947F08AA85BB854A
:101A40006C91262F30E08217930709F066C0CD0114
:101A50000E94B6086AE070E08A859B850E947F0834
:101A60007C0197FD5AC0682F8A859B850E94B60825
:101A70006AE070E08A859B850E947F088C0197FD53
:101A80004CC0682F8A859B850E94B608EA8219821D
:101A9000E981FA810E0F1F1FE12CF12C65E070E047
:101AA0008A859B85E016F106A9F0EC14FD0491F0FF
:101AB0000E947F0897FD0AC0EC81FD81EE0DFF1D9D
:101AC0008083682F8A859B850E94B608FFEFEF1AF6
:101AD000FF0AE4CF0E947F087C0197FD1EC065E0ED
:101AE00070E08A859B850E947F0897FD16C0FE2CBA
:101AF000EE248E0D9F1DAA85BB8513962D913C91DA
:101B000014972817390749F48C918F5F8C93C8017B
:101B1000C016D10680F4C6010EC0939464E670E04E
:101B200080E090E00E94D3078A859B850E9463082D
:101B3000C4CE8FEF9FEF2B960FB6F894DEBF0FBE8B
:101B4000CDBFDF91CF911F910F91FF90EF90DF906C
:101B5000CF90BF90AF909F908F907F906F905F904D
:101B60004F903F902F9008952091440390916604E8
:101B7000213208F04AC0809121038111FCCF32E06C
:101B80003093210331E0309320033FEF30931F0364
:101B900010921E0320931D03A4E2B3E04DEF52E028
:101BA000FA013E2F341B321718F43D913193F9CFCF
:101BB0001092FC022091FC02990F922B9093FC0250
:101BC0009091FB02913061F41092FB029091FC0223
:101BD0009093BB009091BC0093FDF8CF95EC01C0B1
:101BE00095EE9093BC00909121039230E1F3909197
:101BF0001F039F3F79F080911F03803241F0809155
:101C00001F03803331F084E005C081E003C082E02F
:101C100001C083E010922303109244031092220328
:101C20000895682F82EE93E00C940E0391E0909358
:101C300022038093660410922303109244030895B4
:101C4000809121038111FCCF81E080932103809357
:101C500020039FEF90931F0310921E0380931D0398
:101C60008093FC028091FC0280698093FC02809149
:101C7000FB02813061F41092FB028091FC028093A0
:101C8000BB008091BC0083FDF8CF85EC01C085EEE0
:101C90008093BC00809121038130E1F380911E0389
:101CA000823018F480911E0301C082E0ADEFB2E0F3
:101CB0002BED32E0F9019E2F921B981718F49D919D
:101CC0009193F9CF1092DA028093D90208951F936D
:101CD000CF93DF9300D0CDB7DEB7282FCB01BA0169
:101CE0002223C1F0213051F520E030E04AE754E4EE
:101CF0000E94AA1C0E94DC1E9B01AFEFBFEF0E9456
:101D0000EE1D20E03DE740E050E00E946B1D122FE9
:101D100069E115C020E030E048EC52E40E94AA1CC2
:101D20000E94DC1E9B01AFEFBFEF0E94EE1D24ED71
:101D300030E340E050E00E946B1D122F68E180917B
:101D40005E043A8369830E94160E698182EE93E0F5
:101D50000E940E033A81632F82EE93E00E940E03ED
:101D6000612F82EE93E00E940E030E94B40D182FA3
:101D700061E070E080E090E00E94D307812F0F9037
:101D80000F90DF91CF911F9108952F923F924F9224
:101D90005F926F927F928F929F92AF92BF92CF92FB
:101DA000DF92EF92FF920F931F93CF93DF931F92D7
:101DB000CDB7DEB7F82E4A015B01280139010E9438
:101DC000AE071F2D1295107F88E40E94160E83E047
:101DD00090E00E94110E8FEF90E00E94110E8FEFA5
:101DE00090E00E94110E0E94B40D88E40E94160E2D
:101DF00082E090E00E94110E80E090E00E94110EBF
:101E000080E090E00E94110E0E94B40D88E40E94D0
:101E1000160E81E090E00E94110E60E4610F82EEE8
:101E200093E00E940E0388EE90E00E94110E0E9443
:101E3000B40D88E40E94160E80E090E00E94110E1E
:101E40000E94B40D88E00E9419070197D9F783E238
:101E500090E00197F1F700E0C12CD12C760188E0E9
:101E60000E941907019721F50E94200E82EE93E04F
:101E70000E94C202282F82EE93E029830E94C202B0
:101E80002981322E212C82299329BC01990F880B9C
:101E9000990B0E944B1C9B01AC01C701B6010E942B
:101EA000FE1D6B017C010F5F83E290E00197F1F76B
:101EB0000E940D08DC01CB0188199909AA09BB0908
:101EC000481659066A067B0698F588E40E94160EA5
:101ED00081E090E00E94110E61EC610F82EE93E0D0
:101EE0000E940E0383EE90E00E94110E0E94B40D3A
:101EF000602F70E080E090E00E94491C9B01AC01E3
:101F0000C701B6010E946A1E0F90DF91CF911F9109
:101F10000F91FF90EF90DF90CF90BF90AF909F9088
:101F20008F907F906F905F904F903F902F9008958B
:101F3000023308F494CFC9CF0F931F93CF93DF934D
:101F4000EC01062F61EB71E00E94EF050E94F00B9F
:101F5000002E000C110B97FD0AC08017910739F075
:101F6000682FCE010E94AC040E94F00BF4CFCE018A
:101F7000DF91CF911F910F91089585E594E00C9426
:101F80008105CF93DF93CDB7DEB7A5970FB6F89451
:101F9000DEBF0FBECDBF789484B5826084BD84B5AA
:101FA000816084BD85B5826085BD85B5816085BD54
:101FB00080916E00816080936E001092810080910C
:101FC0008100826080938100809181008160809394
:101FD0008100809180008160809380008091B100B9
:101FE00084608093B1008091B00081608093B000E4
:101FF00080917A00846080937A0080917A00826078
:1020000080937A0080917A00816080937A00809139
:102010007A00806880937A001092C100E0915503A5
:10202000F091560302E00083E0915103F0915203D6
:102030001082E0915303F09154038FEC808310924F
:102040005D03E0915903F0915A0316E01083E0918B
:102050005703F0915803808180618083E09157039A
:10206000F0915803808188608083E0915703F0915C
:102070005803808180688083E0915703F091580372
:1020800080818F7D808362EB71E085E493E00E9424
:102090006A06E0914904F0914A04A089B1890C9341
:1020A000A485B5851C92A685B78587E08C93108E94
:1020B000A489B5891C93A289B3898C9180618C9382
:1020C000A289B3898C9188608C93A289B3898C9101
:1020D00080688C930288F389E02D80818F7D8083D6
:1020E000809147048111C4C081E08093470480E45B
:1020F00094E00E94630868EE73E080E090E00E9444
:10210000D3078091450490914604DC01ED91FC9148
:102110000084F185E02D09951816190644F355E061
:10212000F52EEE24E39462E3D62EE6E0F1E0DE0144
:102130001E968F2D01900D928A95E1F7E09248044A
:1021400045E050E0BE01625F7F4F80E494E00E9472
:10215000390A8091450490914604DC01ED91FC918F
:102160000190F081E02D63E009956AEF70E080E076
:1021700090E00E94D3076BE272E080914504909159
:1021800046040E949D066AEF70E080E090E00E94A5
:10219000D30769E272E080914504909146040E9461
:1021A0009D0664EF71E080E090E00E94D3076DE14E
:1021B00072E080914504909146040E949D0664EF70
:1021C00071E080E090E00E94D30780E494E00E94F8
:1021D0006308EBE0F1E0DE0111968F2D01900D9286
:1021E0008A95E1F7D092480404E010E09E012C5E4D
:1021F0003F4F45E050E0BE016F5F7F4F80E494E0C9
:102200000E94CD088F3FBFEF9B0739F468EE73E063
:1022100080E090E00E94D30788CF2C892111FFCF66
:102220000497E9F42D8930E02053310984E6829F38
:10223000A001839F500D11242E8930E020533109D5
:102240006AE0629FC001639F900D1124840F951F67
:102250002F8930E020533109820F931F02C084E69A
:1022600090E0909342048093410482E38093480479
:1022700068EB71E085E493E00E946A061092DA024E
:102280001092D90210922303109244030E94D20BA1
:1022900080915E040E94160E88E290E00E94110E6A
:1022A00080E090E00E94110E81E090E00E94110E0B
:1022B0000E94B40D81113AC064E670E080E090E0C5
:1022C0000E94D30780915E040E94160E87E390E07F
:1022D0000E94110E80E090E00E94110E83E090E0D9
:1022E0000E94110E0E94B40D811120C064E670E0BE
:1022F00080E090E00E94D30780915E040E94160E59
:1023000080E290E00E94110E80E090E00E94110EA9
:1023100083E090E00E94110E0E94B40D811106C06E
:1023200064E670E080E090E00E94D30762EC71E028
:1023300085E493E00E946A061092DA021092D902B4
:1023400010922303109244030E94D20B60E088E0B5
:102350000E94720769EC71E085E493E00E946A06CE
:1023600061E083E10E94720760E083E10E9442071E
:1023700061E086E00E94720761E085E00E947207DA
:1023800061E084E00E94720761E089E00E947207C8
:1023900061E08AE00E94720761E08BE00E947207B0
:1023A00061E08CE00E94720761E086E00E944207D3
:1023B00061E085E00E94420761E084E00E944207FC
:1023C00061E089E00E94420761E08AE00E944207E2
:1023D00061E08BE00E94420761E08CE00E944207CE
:1023E00061E081E10E94720760E081E10E944207A2
:1023F00060ED71E085E493E00E946A0661E082E1AD
:102400000E94720761E08EE00E94720761E08EE038
:102410000E94420760E08DE00E947207109254040F
:102420008BE494E00E94860567ED71E085E493E01B
:102430000E946A0637E0232E312CFE0131967F017F
:1024400049E0C42ED12C60E083E00E94420760E0A6
:1024500084E00E9442078DE00E9419070197E1F491
:102460008091D7029091D8020597B1F43092D802AA
:102470002092D70265E574E0C7010E94E60561EE8F
:1024800071E0C7010E940805BC0185E594E00E9447
:102490006A05C7010E94810561EB71E0CE014A9691
:1024A0000E94EF05E091D702F091D802EA30F105E1
:1024B00008F07EC4EC5CFF4F0C94101F8BE68E87F7
:1024C00001E010E0970141E050E0BE01625F7F4F04
:1024D00080914F04909150040E94CD08892B19F0EF
:1024E000998181E002C080E090E08093FD039093A9
:1024F000FC03882309F4F0C066EE71E085E493E004
:102500000E946A0640E050E061EB71E085E594E0EE
:102510000E9449056FE2C7010E949C0F8A8D9B8D26
:102520000097A9F069817A816115710571F04C8D70
:102530005D8D2D813E814217530738F00E941B218B
:102540008D819E819F8F8E8F12C00E94AB1F8981CB
:102550009A819B8F8A8F8B819C819D8F8C8F8D819F
:102560009E819F8F8E8F1A8219821C821B821E82EF
:102570001D82C7010E948105CE014A960E9448042F
:102580007093D6026093D5026115710589F06130B0
:10259000710509F09AC064E072E085E493E00E945E
:1025A0006A0688E090E09093D8028093D70206C430
:1025B0006FE5C7010E949C0FC7010E944804609309
:1025C000D402C7010E9481056FE5C7010E949C0FDC
:1025D000C7010E9448046093D302C7010E9481058D
:1025E0006FE5C7010E949C0F89819A81009719F0BD
:1025F0000E94B91703C060E070E0CB016093CF0286
:102600007093D0028093D1029093D202C7010E94AE
:1026100081056FE5C7010E949C0F89819A8100970F
:1026200019F00E94B91703C060E070E0CB0160931D
:10263000CB027093CC028093CD029093CE02C7015F
:102640000E9481056FE5C7010E949C0FC7010E948F
:1026500048047093CA026093C902C7010E948105B1
:102660006FE5C7010E949C0FC7010E944804709348
:10267000C8026093C702C7010E9481056FE5C701C8
:102680000E949C0FC7010E9448046093C602C701C4
:102690000E9481056FE2C7010E949C0FC7010E9442
:1026A00048046093C2027093C3028093C402909363
:1026B000C502C7010E94810588E090E09093D8028E
:1026C0008093D7026BEF71E00FC06DE072E08EEE89
:1026D00093E00E946A0672C364E670E080E090E0D6
:1026E0000E94D30764E272E085E493E0F2CF0E9497
:1026F0000D080091BE021091BF022091C0023091DE
:10270000C102DC01CB01801B910BA20BB30B893EF4
:102710009340A105B10508F451C34091CF025091F7
:10272000D0026091D1027091D20280E00E94670EC7
:1027300022E030E03093D8022093D70220C00E94DC
:102740000D080091BE021091BF022091C00230918D
:10275000C102DC01CB01801B910BA20BB30B893EA4
:102760009340A105B10508F429C361E081E10E940D
:10277000420743E050E05093D8024093D7020E94B2
:102780000D086093BE027093BF028093C0029093C5
:10279000C10214C30E940D080091BE021091BF0235
:1027A0002091C0023091C102601B710B820B930B10
:1027B0000E94491C4B015C016091C9027091CA02E0
:1027C00080E090E00E94491C9B01AC01C501B4016E
:1027D0000E946A1E4B015C0120E030E0A9010E94CA
:1027E0000B1F87FD0BC020E030E040E85FE3C50130
:1027F000B4010E94441C18160CF013C14091CB0286
:102800005091CC026091CD027091CE0281E00E9485
:10281000670E84E090E060C20E940D080091BE0245
:102820001091BF022091C0023091C102AB01BC01E6
:10283000401B510B620B730B8091C7029091C80231
:10284000A0E0B0E084179507A607B70708F0B6C266
:10285000A5E0B0E0B093D802A093D7020E940D0883
:102860006093BE027093BF028093C0029093C10236
:102870001092BA021092BB021092BC021092BD02DA
:102880001092B6021092B7021092B8021092B902DA
:102890001092B5021092B40260E08EE00E944207EE
:1028A0008DC24090C2025090C3026090C4027090EA
:1028B000C5028090BE029090BF02A090C002B0906E
:1028C000C10293018201B501A40180E00E94C50EFE
:1028D00068A379A38AA39BA393018201B501A401F4
:1028E00081E00E94C50E4B015C012AE939E949E902
:1028F0005BE368A179A18AA19BA10E94AA1C2B017C
:102900003C016093B6027093B7028093B802909333
:10291000B90222E539E44DE95AE3C501B4010E9448
:10292000AA1C4B015C016093BA027093BB028093B6
:10293000BC029093BD022091B0023091B10240914F
:10294000B2025091B30228A339A34AA35BA365E561
:1029500074E0C7010E94E605B301A201C7010E940D
:10296000D10465E372E00E940805B501A4010E944C
:10297000D10465E372E00E94080548A159A16AA14B
:102980007BA10E94D104BC0185E594E00E946A0508
:10299000C7010E94810546E050E05093D802409361
:1029A000D70261E08EE00E944207E9CE0E940D0846
:1029B0000091BE021091BF022091C0023091C1026D
:1029C000601B710B820B930B0E94491C4B015C0135
:1029D0006091C9027091CA0280E090E00E94491C97
:1029E0009B01AC01C501B4010E946A1E9B01AC01B0
:1029F00060E070E080E89FE30E94FD1D4B015C01F8
:102A000020E030E0A9010E940B1F87FD1CC020E0E0
:102A100030E040E85FE3C501B4010E94441C181691
:102A200094F02091CB023091CC024091CD02509194
:102A3000CE02C501B4010E94AA1CAB01BC0181E019
:102A40000E94670EBBC13092D8022092D702B6C155
:102A500040E050E0BA0181E00E94670E60E081E151
:102A60000E94420740E050E0BA0180E00E94670EF9
:102A700060E082E10E94420734C10E94AE072B0150
:102A80003C0188E40E94160E81E090E00E94110E45
:102A900061EE82EE93E00E940E0383EE90E00E94CE
:102AA000110E0E94B40D8BE697E10197F1F788E4CF
:102AB0000E94160E80E090E00E94110E0E94B40D5C
:102AC0000E94200E82EE93E00E94C202182F82EE36
:102AD00093E00E94C2021DA31CA2ACA0BDA0A82A24
:102AE000B92A0E94AE079B01AC0124193509460999
:102AF000570929013A0161EB71E0CE0144960E9429
:102B0000EF05BE016C5E7F4FCE010E960E94E6057A
:102B100067E372E0CE010E960E9408054C012AE0A0
:102B2000A701C301B2010E941418F701019000200F
:102B3000E9F73197AF014E195F09B701C4010E944F
:102B40005304811103C0C4010E94BF04B401CE012B
:102B500044960E946A05CE010E960E948105CE0120
:102B600044960E948105B501BB0C880B990B0E940D
:102B70004B1C26EA3BE944EC50E40E94AA1C20E0EE
:102B800030E040E058E30E94AA1C9B01AC0164EADB
:102B900070E78DE990E40E946A1E20E030E040E892
:102BA0005FE30E94FD1D2AE939E949E95FE30E94DC
:102BB000AA1C20E030E040E85FE30E94FD1D20E019
:102BC00030E04AE754E40E94AA1C21E73DE34AE7CB
:102BD00050E40E946A1E4B015C016093B002709346
:102BE000B1028093B2029093B3028091D50290918A
:102BF000D6020097B1F0019709F0E0C065E574E0F6
:102C0000C7010E94E605B501A401C7010E94D104D5
:102C1000BC0185E594E00E946A05C7010E94810518
:102C200060C028EF33E543E65EE36091CB0270912C
:102C3000CC028091CD029091CE020E94FE1D2B010C
:102C40003C0122E539E44DE15AE3C501B4010E949B
:102C5000AA1C9B01AC01C301B2010E94FE1D60933E
:102C6000CB027093CC028093CD029093CE02109150
:102C7000D3021150B090D40220E1822E21E0922E96
:102C8000612F61701695D4018D914D010E9442070C
:102C9000B4E18B16B1E09B0699F70B2D10E015956A
:102CA00007956B2D617086E00E944207602F61706E
:102CB00085E00E94420715950795602F617084E0BA
:102CC0000E94420760E083E10E94420761E082E1E6
:102CD0000E94420781E090E09093D8028093D7024F
:102CE0004ECDD092D802C092D70268C065E574E09C
:102CF0008EEE93E00E947E0665E572E0C7010E94B9
:102D0000EF054091590450915A0460915504709117
:102D10005604C7010E945304811103C0C7010E94D9
:102D2000BF04B70185E493E00E947E06C7010E94BC
:102D3000810564EF71E080E090E00E94D3078EEEA1
:102D400093E00E94800A8090D7029090D80265E5B7
:102D500074E0CE010E960E94E6056EE572E0CE01AB
:102D60000E960E9408055C014AE0B701C4010E946A
:102D7000F417F70101900020E9F73197AF014E19E0
:102D80005F09B701C5010E945304811103C0C50149
:102D90000E94BF04B50185E594E00E946A05CE015A
:102DA0000E960E9481051092D8021092D70206C09A
:102DB00068EE73E080E090E00E94D307CE014A966F
:102DC0000E9481050E9440023ECBCF92DF92EF929B
:102DD000FF92CF93DF93E7E6F4E087EA91E09183F7
:102DE00080831282138214821582E5E4F3E0138259
:102DF000128228EEC22E23E0D22EE12CF12CC482C6
:102E0000D582E682F78229E131E03183208325EC07
:102E100030E03587248724EC30E03787268720ECA4
:102E200030E0318B208B21EC30E0338B228B22EC95
:102E300030E0358B248B26EC30E0378B268B118EDF
:102E4000128E138E148EADE6B4E011969C938E9381
:102E500012961C92129713961C92139714961C921A
:102E6000149715961C92A3E7B4E011969C938E9349
:102E700012961C92129713961C92139714961C92FA
:102E8000149715961C92C0E4D4E01882FE83ED835B
:102E90001F821886FA87E987E2EEF3E01382128236
:102EA000C482D582E682F7822BE231E0318320832F
:102EB000E0E6F4E09183808312821382148215820B
:102EC000EEE5F4E08FE080831182ECE5F4E089E444
:102ED000808388E0818361EB71E085E594E00E9466
:102EE000EF05EBE4F4E0138212828DE891E0918328
:102EF0008083D583C48383EB95E197838683108693
:102F00001186EEEEF3E013821282C482D582E6824D
:102F1000F7828DE691E091838083D587C4871686FA
:102F20001786108ADF91CF91FF90EF90DF90CF90BE
:102F30000895EF920F931F93CF93DF93E80147FD1E
:102F400002C034E001C034E1E42F440FFF0BF7FF6F
:102F500003C0F195E195F109E32E022F2E2FAE016A
:102F60000E945018CE01DF91CF911F910F91EF90E9
:102F70000895662777270C94DE191F93FC01992783
:102F80008827BC01E89411911032E9F3193010F050
:102F90001E30C8F31B3251F01D3249F4689406C04C
:102FA0000E94FF17610F711D811D911D119110531A
:102FB0001A30B0F33EF490958095709561957F4FEF
:102FC0008F4F9F4F1F910895FB01DC0105900D92DB
:102FD0000020E1F70895FC0105900020E9F78095B5
:102FE00090958E0F9F1F0895BB274A3031F4992387
:102FF00022F4BDE2909581959F4F0C943718592F7C
:10300000482F372F262F660F771F881F991F660FAF
:10301000771F881F991F620F731F841F951F660FEC
:10302000771F881F991F0895BB27FA01A62F6217E3
:10303000710581059105330B30FB66F0AA27660FF9
:10304000771F881F991FAA1FA21710F0A21B639554
:103050003850A9F7A05DAA3308F0A95DA19336F70F
:10306000B111B1931082CA010C94341CBB27FB012F
:103070005527AA27880F991FAA1FA41710F0A41B71
:1030800083955051B9F7A05DAA3308F0A95DA193CB
:10309000009779F7B111B1931192CB010C94341CC4
:1030A0004F925F926F927F929F92AF92BF92CF9218
:1030B000DF92EF92FF920F931F93CF93DF93CDB7E1
:1030C000DEB729970FB6F894DEBF0FBECDBF6A01F9
:1030D000122FB02E2BE3201720F0FF24F394F00ED4
:1030E00002C0BCE3FB2E0F2D27E0AE014F5F5F4F08
:1030F0000E943B1BAC018981982F9970913031F06F
:10310000E1FC06C0E0FE06C090E205C09DE203C0FF
:103110009BE201C090E0EE2DE07183FF3CC0911175
:1031200002C083E001C084E0811718F4212F281B1E
:1031300001C020E0E1110BC0F601822F30E28823AC
:1031400019F031938150FBCFC20ED11C20E099239E
:1031500029F0D6019C93F60131966F01C6010396C2
:10316000E2FE0AC03EE4D6013C9341E411964C9342
:10317000119712963C9306C03EE6F601308341E675
:1031800041833283FC01322F40E2332309F442C0F1
:1031900041933150FACF82FF44C0911102C083E0C5
:1031A00001C084E0811718F4212F281B01C020E002
:1031B000E1110BC0F601822F30E2882319F0319320
:1031C0008150FBCFC20ED11C20E0992329F0D601FB
:1031D0009C93F60131966F01C6010396E2FE0BC087
:1031E00039E4D6013C933EE411963C93119736E4C2
:1031F00012963C9307C039E6F60130833EE63183F0
:1032000036E63283FC01322F40E2332319F041933A
:103210003150FBCFFC01E20FF11D10828EEF9FEFCA
:10322000B7C0F1E0911101C0F0E06F2F70E014160B
:10323000150624F49A012F5F3F4F02C021E030E0D1
:10324000260F371FBB2029F06B2D70E06F5F7F4F7B
:1032500002C060E070E0260F371F612F70E0261774
:1032600037071CF4121B212F01C020E03E2D3871BE
:1032700059F4D601322F60E2332319F06D933150A7
:10328000FBCFC20ED11C20E0FF2331F0D6019C936E
:10329000B6016F5F7F4F6B01E1110BC0F601922FFA
:1032A00030E3992319F031939150FBCFC20ED11C1A
:1032B00020E09F2D940F3A81782F7071A72E84FF04
:1032C00003C0313309F49150191624F4993018F0E1
:1032D00098E001C091E0E42F852F57FF02C0E0E0A5
:1032E00080E06E2F782FE0E0F0E0AEE29A2E3A0117
:1032F000691A71082A01461A570A0B2D10E0119518
:10330000019511096F3F8FEF780729F4D6019C9240
:10331000C60101966C014617570784F066167706BA
:103320006CF47F01E40CF51CA1E0B0E0AC0FBD1F14
:10333000EA0EFB1ED7011196BC9002C090E3B92E95
:10334000615071093196C60101967C0160177107C1
:1033500024F0D601BC926C01D5CF6417750741F4F7
:10336000363320F4353321F4A11002C081E3B82EA6
:10337000F601B082F701822F90E2882319F0919331
:103380008150FBCFF701E20FF11D108280E090E049
:1033900029960FB6F894DEBF0FBECDBFDF91CF9157
:1033A0001F910F91FF90EF90DF90CF90BF90AF9063
:1033B0009F907F906F905F904F900895A0E0B0E055
:1033C000E4EEF9E10C94991DEC017B0161157105A6
:1033D00019F0DB018D939C938E010F5F1F4F788056
:1033E000872D90E00E94131C892B11F0E801F4CF87
:1033F000BDE27B1205C00F5F1F4F7980C1E008C09E
:10340000EBE27E1204C08E010E5F1F4F7980C0E098
:103410006801F1E0CF1AD10843E050E064E870E0C1
:10342000C6010E941C1C892BF1F4680122E0C20E27
:10343000D11C45E050E06FE770E0C6010E941C1C03
:10344000892B21F4680187E0C80ED11CE114F10436
:1034500019F0D701CD92DC92C111FFC060E070E09D
:1034600080E89FE703C143E050E06CE770E0C601ED
:103470000E941C1C892B51F4E114F10409F4F2C0E0
:103480000E5F1F4FF70111830083ECC0680160E0FD
:1034900070E0CB0100E010E0F601D0EDD70DDA309E
:1034A00058F52C2F2260622E2C2F2870C2FF05C0E9
:1034B000211128C00F5F1F4F25C0222311F001509A
:1034C0001109A5E0B0E09B01AC010E948A1D4B01EF
:1034D0005C01880C991CAA1CBB1CC501B4016D0FB2
:1034E000711D811D911D6839A9E97A078A07A9E133
:1034F0009A0740F0C66005C0DE3F51F4C3FD44C0EA
:10350000C8606C2EBFEFCB1ADB0A7080C62DC4CF0B
:103510002D2F2F7D2531C1F540814D3211F4C06131
:1035200006C04B3221F0319621E030E006C03296E1
:10353000D60111964C9122E030E0A0EDA40FAA3004
:1035400018F0E21BF30B20C040E050E04038BCE034
:103550005B075CF49A01220F331F220F331F420FC7
:10356000531F440F551F4A0F511D3196DF0111970C
:103570002C91A0EDA20FAA3048F3C4FF03C05195CF
:1035800041955109040F151FC1FF07C0E114F10453
:1035900021F03197D701ED93FC930E94491CC37031
:1035A000C33019F06B017C0106C06B017C01F7FA96
:1035B000F094F7F8F09420E030E0A901C701B601DB
:1035C0000E94441C882309F445C017FF06C01195CA
:1035D00001951109CBE9D0E002C0C3EBD0E05E0158
:1035E000B8E1AB1AB1084601BE2DAF2D90E2E92E2D
:1035F000F12C0E151F0584F0FE01259135914591A2
:103600005491B4018B2F9A2F0E94AA1C4B01B82F02
:10361000A92F0E191F09EDCF2497F594E794CA1529
:10362000DB0539F76401EB2EFA2E8E2D880F8F2DD6
:10363000881F8F3F49F020E030E0A901C701B601A3
:103640000E94441C811106C082E290E090937A04AB
:1036500080937904C701B60109C060E070E080E89A
:103660009FEF04C060E070E080EC9FE7CDB7DEB76D
:10367000EEE00C94B51D283008F027E03327DA017E
:10368000990F311D87FD916000966105710539F430
:1036900032602E5F3D9330E32A95E1F708959F3F16
:1036A00030F080387105610509F03C5F3C5F3D9367
:1036B000913008F08068911DDF93CF931F930F9393
:1036C000FF92EF92192F987F9695E92F96959695F0
:1036D000E90FFF27EF5EFE4F99273327EE24FF24E3
:1036E000A701E70105900894079428F4360FE71E18
:1036F000F81E491F511D660F771F881F991F0694DA
:10370000A1F70590079428F4E70EF81E491F561FED
:10371000C11D770F881F991F661F0694A1F705909A
:10372000079428F4F80E491F561FC71FD11D880F94
:10373000991F661F771F0694A1F70590079420F440
:10374000490F561FC71FD81F990F661F771F881F65
:103750000694A9F784911095177041F0D695C795F6
:1037600057954795F794E7941A95C1F7E7EBF0E082
:1037700068941590159135916591959105907FE22A
:103780007395E118F10A430B560BC90BD009C0F72A
:10379000E10CF11E431F561FC91FD01D7EF470336C
:1037A00011F48A95E6CFE894015030F0080F0AF43E
:1037B0000027021708F4202F2395022F7A3328F0D0
:1037C00079E37D932A95E9F710C07D932A9589F6D0
:1037D000069497956795379517951794E118F10A10
:1037E000430B560BC90BD00998F023957E91739526
:1037F0007A3308F070E37C932013B8F77E91706100
:103800007D9330F0839571E37D9370E32A95E1F722
:103810001124EF90FF900F911F91CF91DF91992785
:1038200087FD9095089591110C94171D803219F021
:1038300089508550C8F70895FB01DC014150504084
:1038400088F08D9181341CF08B350CF4805E65918D
:1038500061341CF06B350CF4605E861B611171F3F2
:10386000990B0895881BFCCFDC01FC01672F719137
:103870007723E1F7329704C07C916D937083629156
:10388000AE17BF07C8F308950E94861C08F481E0B4
:103890000895E89409C097FB3EF490958095709543
:1038A00061957F4F8F4F9F4F9923A9F0F92F96E98C
:1038B000BB279395F695879577956795B795F11101
:1038C000F8CFFAF4BB0F11F460FF1BC06F5F7F4F9E
:1038D0008F4F9F4F16C0882311F096E911C07723B0
:1038E00021F09EE8872F762F05C0662371F096E8B9
:1038F000862F70E060E02AF09A95660F771F881F88
:10390000DAF7880F9695879597F90895990F00082B
:10391000550FAA0BE0E8FEEF16161706E807F907A1
:10392000C0F012161306E407F50798F0621B730B3C
:10393000840B950B39F40A2661F0232B242B252BBD
:1039400021F408950A2609F4A140A6958FEF811D60
:10395000811D08950E94BD1C0C94311D0E94231DE1
:1039600038F00E942A1D20F0952311F00C941A1DA6
:103970000C94201D11240C94651D0E94421D70F3AF
:10398000959FC1F3950F50E0551F629FF001729F04
:10399000BB27F00DB11D639FAA27F00DB11DAA1F13
:1039A000649F6627B00DA11D661F829F2227B00D60
:1039B000A11D621F739FB00DA11D621F839FA00DEB
:1039C000611D221F749F3327A00D611D231F849F3B
:1039D000600D211D822F762F6A2F11249F57504092
:1039E0009AF0F1F088234AF0EE0FFF1FBB1F661F0D
:1039F000771F881F91505040A9F79E3F510580F0D6
:103A00000C941A1D0C94651D5F3FE4F3983ED4F3AB
:103A1000869577956795B795F795E7959F5FC1F779
:103A2000FE2B880F911D9695879597F908959927F4
:103A30008827089597F99F6780E870E060E008950F
:103A40009FEF80EC089500240A94161617061806B6
:103A50000906089500240A94121613061406050692
:103A60000895092E0394000C11F4882352F0BB0F23
:103A700040F4BF2B11F460FF04C06F5F7F4F8F4F86
:103A80009F4F089557FD9058440F551F59F05F3FC1
:103A900071F04795880F97FB991F61F09F3F79F070
:103AA00087950895121613061406551FF2CF4695F2
:103AB000F1DF08C0161617061806991FF1CF869574
:103AC0007105610508940895E894BB276627772758
:103AD000CB0197F90895052E97FB1EF400940E94E0
:103AE000821D57FD07D00E94CC1D07FC03D04EF469
:103AF0000C94821D50954095309521953F4F4F4F26
:103B00005F4F089590958095709561957F4F8F4F89
:103B10009F4F08950E94EE1DA59F900DB49F900D9C
:103B2000A49F800D911D112408952F923F924F92D2
:103B30005F926F927F928F929F92AF92BF92CF923D
:103B4000DF92EF92FF920F931F93CF93DF93CDB746
:103B5000DEB7CA1BDB0B0FB6F894DEBF0FBECDBFBE
:103B600009942A88398848885F846E847D848C848F
:103B70009B84AA84B984C884DF80EE80FD800C8198
:103B80001B81AA81B981CE0FD11D0FB6F894DEBF7B
:103B90000FBECDBFED010895A1E21A2EAA1BBB1BDB
:103BA000FD010DC0AA1FBB1FEE1FFF1FA217B30709
:103BB000E407F50720F0A21BB30BE40BF50B661F1F
:103BC000771F881F991F1A9469F7609570958095E3
:103BD00090959B01AC01BD01CF010895A29FB0015A
:103BE000B39FC001A39F700D811D1124911DB29F31
:103BF000700D811D1124911D08955058BB27AA27CF
:103C00000E94151E0C94311D0E94231D38F00E9445
:103C10002A1D20F039F49F3F19F426F40C94201D3E
:103C20000EF4E095E7FB0C941A1DE92F0E94421D4B
:103C300058F3BA17620773078407950720F079F4E1
:103C4000A6F50C94641D0EF4E0950B2EBA2FA02D52
:103C50000B01B90190010C01CA01A0011124FF2739
:103C6000591B99F0593F50F4503E68F11A16F04034
:103C7000A22F232F342F4427585FF3CF4695379533
:103C80002795A795F0405395C9F77EF41F16BA0BF8
:103C9000620B730B840BBAF09150A1F0FF0FBB1FA6
:103CA000661F771F881FC2F70EC0BA0F621F731FEF
:103CB000841F48F4879577956795B795F7959E3F4C
:103CC00008F0B0CF9395880F08F09927EE0F9795DD
:103CD000879508950E947E1E0C94311D0E942A1D16
:103CE00058F00E94231D40F029F45F3F29F00C9406
:103CF0001A1D51110C94651D0C94201D0E94421D2B
:103D000068F39923B1F3552391F3951B550BBB270A
:103D1000AA2762177307840738F09F5F5F4F220F4F
:103D2000331F441FAA1FA9F335D00E2E3AF0E0E846
:103D300032D091505040E695001CCAF72BD0FE2F90
:103D400029D0660F771F881FBB1F26173707480724
:103D5000AB07B0E809F0BB0B802DBF01FF279358DC
:103D60005F4F3AF09E3F510578F00C941A1D0C9469
:103D7000651D5F3FE4F3983ED4F38695779567958C
:103D8000B795F7959F5FC9F7880F911D9695879511
:103D900097F90895E1E0660F771F881FBB1F621730
:103DA00073078407BA0720F0621B730B840BBA0BEE
:103DB000EE1F88F7E09508950E944A1D88F09F57EE
:103DC00098F0B92F9927B751B0F0E1F0660F771F3F
:103DD000881F991F1AF0BA95C9F714C0B13091F035
:103DE0000E94641DB1E008950C94641D672F782F24
:103DF0008827B85F39F0B93FCCF3869577956795FA
:103E0000B395D9F73EF490958095709561957F4F65
:103E10008F4F9F4F08950E94861C08F48FEF0895DE
:103E2000EE0FFF1F0590F491E02D0994CF93DF93DF
:103E30008230910510F482E090E0E0917D04F091F1
:103E40007E0420E030E0C0E0D0E0309711F1408106
:103E5000518148175907C0F04817590761F482810A
:103E60009381209719F09B838A832BC090937E04C3
:103E700080937D0426C02115310519F042175307A0
:103E800018F49A01BE01DF01EF010280F381E02DF9
:103E9000DCCF2115310509F1281B390B2430310500
:103EA00090F412968D919C9113976115710521F0F4
:103EB000FB019383828304C090937E0480937D04EE
:103EC000FD01329644C0FD01E20FF31F81939193EF
:103ED000225031092D933C933AC020917B043091BC
:103EE0007C04232B41F42091020130910301309393
:103EF0007C0420937B042091000130910101211565
:103F0000310541F42DB73EB74091040150910501B0
:103F1000241B350BE0917B04F0917C04E217F3073E
:103F2000A0F42E1B3F0B2817390778F0AC014E5F29
:103F30005F4F2417350748F04E0F5F1F50937C04E6
:103F400040937B048193919302C0E0E0F0E0CF01C5
:103F5000DF91CF9108950F931F93CF93DF93009735
:103F600009F48CC0FC0132971382128200917D0407
:103F700010917E040115110581F420813181820F99
:103F8000931F20917B0430917C042817390779F521
:103F9000F0937C04E0937B0471C0D80140E050E0D2
:103FA000AE17BF0750F412962D913C911397AD01B7
:103FB0002115310509F1D901F3CF9D01DA013383D0
:103FC000228360817181860F971F8217930769F49E
:103FD000EC0128813981260F371F2E5F3F4F318337
:103FE00020838A819B8193838283452B29F4F093DC
:103FF0007E04E0937D0442C01396FC93EE931297E7
:10400000ED01499159919E01240F351FE217F307E5
:1040100071F480819181840F951F029611969C9373
:104020008E938281938113969C938E931297E0E0F6
:10403000F0E0D80112968D919C911397009719F09A
:10404000F8018C01F6CF8D919C9198012E5F3F4F26
:10405000820F931F20917B0430917C04281739072D
:1040600069F4309729F410927E0410927D0402C006
:104070001382128210937C0400937B04DF91CF9112
:104080001F910F910895A0E0B0E0E9E4F0E20C94F4
:10409000991DEC01009721F4CB010E94161FB8C0B6
:1040A000FC01E60FF71F9C0122503109E217F307CC
:1040B00008F4ACC0D9010D911C9111970617170790
:1040C000B0F00530110508F49FC0C80104978617A9
:1040D000970708F499C002501109061B170B0193AA
:1040E00011936D937C93CF010E94AB1F8DC05B0138
:1040F000A01AB10A4C01800E911EA0917D04B091CE
:104100007E0440E050E0E12CF12C109709F44AC005
:10411000A815B905D1F56D907C901197630182E0E7
:10412000C80ED11CCA14DB0480F1A3014A195B0933
:104130006A0182E0C80ED11C1296BC9012971396A9
:10414000AC91B5E0CB16D10440F0B282A383518389
:104150004083D9016D937C930AC00E5F1F4FC3014A
:10416000800F911FF90191838083EB2DFA2FE114C9
:10417000F10431F0D7011396FC93EE93129744C0EB
:10418000F0937E04E0937D043FC08D919C91119744
:104190004817590708F4AC017D0112960D90BC91A7
:1041A000A02DB3CF80917B0490917C048815990554
:1041B000E1F446175707C8F480910001909101017E
:1041C000009741F48DB79EB74091040150910501CD
:1041D000841B950BE817F907C8F4F0937C04E0936F
:1041E0007B04F901718360830FC0CB010E94161F0D
:1041F0007C01009759F0A801BE010E941221CE0156
:104200000E94AB1FC70104C0CE0102C080E090E055
:10421000CDB7DEB7EEE00C94B51D81E090E0F894E8
:104220000C942221FB01DC0102C001900D9241504F
:104230005040D8F70895FB01DC0101900D92002059
:10424000E1F7089511E0C8E1D1E004C0FE010E9449
:0E425000101F2196C931D107C9F7F894FFCF8E
:10425E0000007F0480005858585858585831303054
:10426E00090A0B0C0800000000D70144016F011E63
:10427E0002A0017E019201000000000E03DE023E4C
:10428E0003B202D602C202B3020000000041034193
:10429E00033E0341034103410341034103410341F3
:1042AE000341034103410300000000410344013E6A
:1042BE00033D03410341034103000000005D0A1268
:1042CE00043E0373022F0A170AD1090406E208E41A
:1042DE0009800A64097D02740200000000440A4449
:1042EE00013E033D03860500000000410344013EEC
:1042FE00033D0300000000C8030000000041030D51
:10430E000A0068656C6C6F00627269646765206F85
:10431E006B00646163206F6B00616463206F6B00E0
:10432E00706362206F6B00656E64207365747570C8
:10433E00005645544F004920726563656976656481
:10434E0020736F6D657468696E6700416374696F81
:10435E006E203000416374696F6E203100455252F9
:10436E004F523A20494E56414C494420434F4D4DF1
:10437E00414E44004E6F7468696E672072656365C6
:10438E0069766564002C00726561646F75742065D2
:10439E006C617073656420696E2066756E637469F6
:1043AE006F6E3A2000616E737765723A20005F007F
:107E0000112484B714BE81FFF0D085E080938100F7
:107E100082E08093C00088E18093C10086E0809377
:107E2000C20080E18093C4008EE0C9D0259A86E02C
:107E300020E33CEF91E0309385002093840096BBD3
:107E4000B09BFECF1D9AA8958150A9F7CC24DD24C4
:107E500088248394B5E0AB2EA1E19A2EF3E0BF2EE7
:107E6000A2D0813461F49FD0082FAFD0023811F036
:107E7000013811F484E001C083E08DD089C08234E0
:107E800011F484E103C0853419F485E0A6D080C0E4
:107E9000853579F488D0E82EFF2485D0082F10E0AE
:107EA000102F00270E291F29000F111F8ED06801E7
:107EB0006FC0863521F484E090D080E0DECF843638
:107EC00009F040C070D06FD0082F6DD080E0C81688
:107ED00080E7D80618F4F601B7BEE895C0E0D1E017
:107EE00062D089930C17E1F7F0E0CF16F0E7DF06D8
:107EF00018F0F601B7BEE89568D007B600FCFDCFD4
:107F0000A601A0E0B1E02C9130E011968C91119780
:107F100090E0982F8827822B932B1296FA010C0160
:107F200087BEE89511244E5F5F4FF1E0A038BF0790
:107F300051F7F601A7BEE89507B600FCFDCF97BE46
:107F4000E89526C08437B1F42ED02DD0F82E2BD052
:107F50003CD0F601EF2C8F010F5F1F4F84911BD097
:107F6000EA94F801C1F70894C11CD11CFA94CF0C13
:107F7000D11C0EC0853739F428D08EE10CD085E9AC
:107F80000AD08FE07ACF813511F488E018D01DD067
:107F900080E101D065CF982F8091C00085FFFCCF94
:107FA0009093C60008958091C00087FFFCCF809118
:107FB000C00084FD01C0A8958091C6000895E0E648
:107FC000F0E098E1908380830895EDDF803219F02E
:107FD00088E0F5DFFFCF84E1DECF1F93182FE3DFCA
:107FE0001150E9F7F2DF1F91089580E0E8DFEE27F6
:047FF000FF270994CA
:027FFE00040479
:0400000300007E007B
:00000001FF
